{
  "contractName": "Remittance",
  "abi": [
    {
      "constant": true,
      "inputs": [
        {
          "name": "",
          "type": "bytes32"
        }
      ],
      "name": "fonds",
      "outputs": [
        {
          "name": "",
          "type": "uint256"
        }
      ],
      "payable": false,
      "stateMutability": "view",
      "type": "function"
    },
    {
      "constant": true,
      "inputs": [],
      "name": "exchange",
      "outputs": [
        {
          "name": "",
          "type": "address"
        }
      ],
      "payable": false,
      "stateMutability": "view",
      "type": "function"
    },
    {
      "inputs": [
        {
          "name": "exchangeAllowedToWithdraw",
          "type": "address"
        }
      ],
      "payable": false,
      "stateMutability": "nonpayable",
      "type": "constructor"
    },
    {
      "constant": false,
      "inputs": [
        {
          "name": "hash",
          "type": "bytes32"
        }
      ],
      "name": "createRemittance",
      "outputs": [],
      "payable": true,
      "stateMutability": "payable",
      "type": "function"
    },
    {
      "constant": false,
      "inputs": [
        {
          "name": "pwd",
          "type": "uint256"
        }
      ],
      "name": "withdrawFonds",
      "outputs": [
        {
          "name": "",
          "type": "bool"
        }
      ],
      "payable": false,
      "stateMutability": "nonpayable",
      "type": "function"
    },
    {
      "constant": true,
      "inputs": [
        {
          "name": "pwd",
          "type": "uint256"
        }
      ],
      "name": "calculateHash",
      "outputs": [
        {
          "name": "",
          "type": "bytes32"
        }
      ],
      "payable": false,
      "stateMutability": "pure",
      "type": "function"
    }
  ],
  "bytecode": "0x6060604052341561000f57600080fd5b60405160208061042783398101604052808051906020019091905050600073ffffffffffffffffffffffffffffffffffffffff168173ffffffffffffffffffffffffffffffffffffffff161415151561006757600080fd5b80600160006101000a81548173ffffffffffffffffffffffffffffffffffffffff021916908373ffffffffffffffffffffffffffffffffffffffff1602179055505061036f806100b86000396000f30060606040526004361061006d576000357c0100000000000000000000000000000000000000000000000000000000900463ffffffff1680632f09785914610072578063512f4ef6146100ad5780635e1000e3146100ec57806396efa22c14610108578063d2f7265a14610143575b600080fd5b341561007d57600080fd5b610097600480803560001916906020019091905050610198565b6040518082815260200191505060405180910390f35b34156100b857600080fd5b6100ce60048080359060200190919050506101b0565b60405180826000191660001916815260200191505060405180910390f35b6101066004808035600019169060200190919050506101cf565b005b341561011357600080fd5b6101296004808035906020019091905050610209565b604051808215151515815260200191505060405180910390f35b341561014e57600080fd5b61015661031d565b604051808273ffffffffffffffffffffffffffffffffffffffff1673ffffffffffffffffffffffffffffffffffffffff16815260200191505060405180910390f35b60006020528060005260406000206000915090505481565b6000816040518082815260200191505060405180910390209050919050565b6000341115156101de57600080fd5b3460008083600019166000191681526020019081526020016000206000828254019250508190555050565b6000806000600160009054906101000a900473ffffffffffffffffffffffffffffffffffffffff1673ffffffffffffffffffffffffffffffffffffffff163373ffffffffffffffffffffffffffffffffffffffff1614151561026a57600080fd5b836040518082815260200191505060405180910390209150600080836000191660001916815260200190815260200160002054905060008114156102b15760009250610316565b60008060008460001916600019168152602001908152602001600020819055503373ffffffffffffffffffffffffffffffffffffffff166108fc829081150290604051600060405180830381858888f19350505050151561031157600080fd5b600192505b5050919050565b600160009054906101000a900473ffffffffffffffffffffffffffffffffffffffff16815600a165627a7a72305820b60d2b663dabafa8aeda3aaa76c6d3a210404206c87edca50042fd0c198b4ef90029",
  "source": "pragma solidity ^0.4.19;\n\ncontract Remittance  {\n    \n    // bytes32 represents the hash of a password, uint the funds available for whom has the right password     \n    mapping (bytes32 => uint) public fonds;\n    address public exchange;\n    \n    function Remittance(address exchangeAllowedToWithdraw) public {\n        require(exchangeAllowedToWithdraw != address(0));\n        exchange = exchangeAllowedToWithdraw;\n    }\n    /**\n     * send fonds with the hash of a passwrd.\n     */\n    function createRemittance(bytes32 hash) public payable {\n        require(msg.value > 0);\n        fonds[hash] += msg.value;\n    }\n    \n    /**\n     * allow to withdraw fonds if the password hash matches a known hash\n     */\n    function withdrawFonds(uint pwd) public returns(bool) {\n        require(msg.sender == exchange); //only carol/exchange can withdraw\n        bytes32 hash = keccak256(pwd);\n        uint toWithdraw = fonds[hash];\n        if ( toWithdraw == 0) return false;\n        fonds[hash] = 0;\n        msg.sender.transfer(toWithdraw);\n        return true;\n    }\n    \n    function calculateHash(uint pwd) public pure returns(bytes32) {\n        return keccak256(pwd);\n    }\n}\n",
  "sourcePath": "/home/mehdi/ethereum/project/Remittance/contracts/Remittance.sol",
  "compiler": {
    "name": "solc",
    "version": "0.4.19+commit.c4cbbb05.Emscripten.clang"
  },
  "schemaVersion": "2.0.0",
  "updatedAt": "2018-03-08T16:38:44.835Z"
}